{
  "_format": "hh-sol-artifact-1",
  "contractName": "PostBoard",
  "sourceName": "contracts/PostBoard.sol",
  "abi": [
    {
      "inputs": [
        {
          "internalType": "string",
          "name": "text",
          "type": "string"
        }
      ],
      "name": "addPost",
      "outputs": [],
      "stateMutability": "nonpayable",
      "type": "function"
    },
    {
      "inputs": [],
      "name": "getPosts",
      "outputs": [
        {
          "internalType": "string[]",
          "name": "",
          "type": "string[]"
        }
      ],
      "stateMutability": "view",
      "type": "function"
    },
    {
      "inputs": [
        {
          "internalType": "uint256",
          "name": "",
          "type": "uint256"
        }
      ],
      "name": "posts",
      "outputs": [
        {
          "internalType": "string",
          "name": "",
          "type": "string"
        }
      ],
      "stateMutability": "view",
      "type": "function"
    }
  ],
  "bytecode": "0x6080604052348015600f57600080fd5b50610aac8061001f6000396000f3fe608060405234801561001057600080fd5b50600436106100415760003560e01c80630b1e7f831461004657806341f3004a14610076578063a632281914610094575b600080fd5b610060600480360381019061005b91906103de565b6100b0565b60405161006d919061049b565b60405180910390f35b61007e61015c565b60405161008b91906105c9565b60405180910390f35b6100ae60048036038101906100a99190610720565b610235565b005b600081815481106100c057600080fd5b9060005260206000200160009150905080546100db90610798565b80601f016020809104026020016040519081016040528092919081815260200182805461010790610798565b80156101545780601f1061012957610100808354040283529160200191610154565b820191906000526020600020905b81548152906001019060200180831161013757829003601f168201915b505050505081565b60606000805480602002602001604051908101604052809291908181526020016000905b8282101561022c57838290600052602060002001805461019f90610798565b80601f01602080910402602001604051908101604052809291908181526020018280546101cb90610798565b80156102185780601f106101ed57610100808354040283529160200191610218565b820191906000526020600020905b8154815290600101906020018083116101fb57829003601f168201915b505050505081526020019060010190610180565b50505050905090565b6000819080600181540180825580915050600190039060005260206000200160009091909190915090816102699190610975565b506102a86040518060400160405280600481526020017f68657265000000000000000000000000000000000000000000000000000000008152506102ab565b50565b610341816040516024016102bf919061049b565b6040516020818303038152906040527f41304fac000000000000000000000000000000000000000000000000000000007bffffffffffffffffffffffffffffffffffffffffffffffffffffffff19166020820180517bffffffffffffffffffffffffffffffffffffffffffffffffffffffff8381831617835250505050610344565b50565b61035b8161035361035e61037f565b63ffffffff16565b50565b60006a636f6e736f6c652e6c6f679050600080835160208501845afa505050565b61038a819050919050565b610392610a47565b565b6000604051905090565b600080fd5b600080fd5b6000819050919050565b6103bb816103a8565b81146103c657600080fd5b50565b6000813590506103d8816103b2565b92915050565b6000602082840312156103f4576103f361039e565b5b6000610402848285016103c9565b91505092915050565b600081519050919050565b600082825260208201905092915050565b60005b8381101561044557808201518184015260208101905061042a565b60008484015250505050565b6000601f19601f8301169050919050565b600061046d8261040b565b6104778185610416565b9350610487818560208601610427565b61049081610451565b840191505092915050565b600060208201905081810360008301526104b58184610462565b905092915050565b600081519050919050565b600082825260208201905092915050565b6000819050602082019050919050565b600082825260208201905092915050565b60006105058261040b565b61050f81856104e9565b935061051f818560208601610427565b61052881610451565b840191505092915050565b600061053f83836104fa565b905092915050565b6000602082019050919050565b600061055f826104bd565b61056981856104c8565b93508360208202850161057b856104d9565b8060005b858110156105b757848403895281516105988582610533565b94506105a383610547565b925060208a0199505060018101905061057f565b50829750879550505050505092915050565b600060208201905081810360008301526105e38184610554565b905092915050565b600080fd5b600080fd5b7f4e487b7100000000000000000000000000000000000000000000000000000000600052604160045260246000fd5b61062d82610451565b810181811067ffffffffffffffff8211171561064c5761064b6105f5565b5b80604052505050565b600061065f610394565b905061066b8282610624565b919050565b600067ffffffffffffffff82111561068b5761068a6105f5565b5b61069482610451565b9050602081019050919050565b82818337600083830152505050565b60006106c36106be84610670565b610655565b9050828152602081018484840111156106df576106de6105f0565b5b6106ea8482856106a1565b509392505050565b600082601f830112610707576107066105eb565b5b81356107178482602086016106b0565b91505092915050565b6000602082840312156107365761073561039e565b5b600082013567ffffffffffffffff811115610754576107536103a3565b5b610760848285016106f2565b91505092915050565b7f4e487b7100000000000000000000000000000000000000000000000000000000600052602260045260246000fd5b600060028204905060018216806107b057607f821691505b6020821081036107c3576107c2610769565b5b50919050565b60008190508160005260206000209050919050565b60006020601f8301049050919050565b600082821b905092915050565b60006008830261082b7fffffffffffffffffffffffffffffffffffffffffffffffffffffffffffffffff826107ee565b61083586836107ee565b95508019841693508086168417925050509392505050565b6000819050919050565b600061087261086d610868846103a8565b61084d565b6103a8565b9050919050565b6000819050919050565b61088c83610857565b6108a061089882610879565b8484546107fb565b825550505050565b600090565b6108b56108a8565b6108c0818484610883565b505050565b5b818110156108e4576108d96000826108ad565b6001810190506108c6565b5050565b601f821115610929576108fa816107c9565b610903846107de565b81016020851015610912578190505b61092661091e856107de565b8301826108c5565b50505b505050565b600082821c905092915050565b600061094c6000198460080261092e565b1980831691505092915050565b6000610965838361093b565b9150826002028217905092915050565b61097e8261040b565b67ffffffffffffffff811115610997576109966105f5565b5b6109a18254610798565b6109ac8282856108e8565b600060209050601f8311600181146109df57600084156109cd578287015190505b6109d78582610959565b865550610a3f565b601f1984166109ed866107c9565b60005b82811015610a15578489015182556001820191506020850194506020810190506109f0565b86831015610a325784890151610a2e601f89168261093b565b8355505b6001600288020188555050505b505050505050565b7f4e487b7100000000000000000000000000000000000000000000000000000000600052605160045260246000fdfea2646970667358221220b7e66599e0909a7569446d0eff0c5d38d1d8c70fd77cc135d92f0d7ac108bc7964736f6c634300081c0033",
  "linkReferences": {},
  "deployedLinkReferences": {}
}